:020000040002F8
:10300000303500202DA3020097400200BB40020093
:103010002B480200A34802002F5B020000000000C2
:10302000000000000000000000000000DF5F020060
:103030007F750200000000000F820200FF82020084
:10304000A53A0200BB8502001D3A0200493A02007F
:103050008F8D0200938D02001B5E0200BF8802006C
:10306000E18C0200E98C0200F38D020067960200F9
:103070009F960200BF9F020069A20200E3A2020025
:10308000EFA2020051530200F1A302004F3A0200E6
:10309000D7530200F3A3020027400200F5A3020069
:1030A000F7A30200F9A30200FBA30200FDA30200A4
:1030B000FFA3020001A402000000000000000000C5
:1030C00003A4020005A4020007A4020009A4020050
:1030D0000BA402000DA402000FA4020000000000D7
:1030E00000000000000000000000000000000000E0
:1030F00000000000000000000000000000000000D0
:1031000000000000000000000000000000000000BF
:1031100000000000000000000000000000000000AF
:10312000000000000000000000000000000000009F
:10313000000000000000000000000000000000008F
:10314000000000000000000000000000000000007F
:10315000000000000000000000000000000000006F
:10316000000000000000000000000000000000005F
:10317000000000000000000000000000000000004F
:10318000000000000000000000000000000000003F
:10319000000000000000000000000000000000002F
:1031A000000000000000000000000000000000001F
:1031B000000000000000000000000000000000000F
:1031C00000000000000000000000000000000000FF
:1031D00000000000000000000000000000000000EF
:1031E00000000000000000000000000000000000DF
:1031F00000000000000000000000000000000000CF
:103200000EE016E0D0F80403084018BF0120C0B259
:10321000704700F20C5082600160704714E000BFFC
:1032200081B00022425040580090009801B0704791
:1032300000BF405800B10120C0B2704700F20C50EE
:1032400001608260704700BF4FF4A163C150184411
:103250008260704741EA420141EA8302009942EAF2
:103260000122019942EA0141DFF8C42742F8201007
:10327000704700B583B000F00CF8012106E000B5FE
:1032800083B00022019200920B460021FFF7E2FF7B
:1032900007BD002101910091002301227047F8B57C
:1032A0000D4604462868DFF88C77012610F1010FDF
:1032B00005D006FA00F038602868FFF7DAFF686882
:1032C00010F1010F1CBF0321FFF7D9FF2279DFF8AE
:1032D0006817A86901EB4211097F00292168C1F82C
:1032E0002405687D297D19D000F038F8FFF7A6FF86
:1032F000287D01282CD1A86810F1010F1CBF0021E6
:10330000FFF7BDFFE86810F1010F01D000F021F8D0
:10331000AA68E9682068BDE8F84094E700F01EF864
:10332000FFF777FF287D012812D1A86810F1010F5F
:103330001CBF0021FFF7A3FFE86810F1010F01D0C7
:1033400000F007F8AA68E9682068BDE8F84065E77A
:10335000F1BD06FA00F03860E8688AE708432168A2
:10336000C1F86C056A6829682068704738B50D4651
:1033700000F026F880B120684FF48871FFF74FFF06
:1033800000F08BF820684FF49271FFF748FF00F0CF
:10339000B7F9DFF8A80608E000F0D9F820684FF484
:1033A000A271FFF72DFFDFF898062168C1F804032A
:1033B00029462068BDE834400003001600F079BBC0
:1033C0000446DFF87406217900EB4110007F704756
:1033D0002DE9F04100F0BFF8F87E164608B108204C
:1033E00020E0687F38772046FFF759FF7E60286924
:1033F0003860786818B1297F2046FFF7B7FF207939
:10340000216808EB4010007F002814BF082004202A
:10341000C1F800050020F8753876B8750120F876F7
:103420000020B876BDE8F08138B50D4604464FF46B
:103430008E71FFF7E5FEA868A98A405CA98A491C3D
:10344000A982C4F81C0531BDF8B50446DFF8E805CB
:10345000217900EB411500F020F800F0DDF921683A
:10346000A87DAA6801F2445100260A604860012044
:1034700021688860686870B920684FF49071FFF720
:10348000D7FE074600F0C4F950EA0701F4D000B1B6
:103490000F260020A8753046F2BD20684FF49071C9
:1034A000BDE62DE9F04100F056F8387F00281EBF38
:1034B00005F06040B0F1005F1020164641D1204673
:1034C00000F051F808B111203BE0BE75BD60B88234
:1034D000207908EB4015287F18B12046BDE8F0415F
:1034E000B2E700F034F8216801208860294620689E
:1034F000FFF79AFF6868002610BB0EE000F023F883
:1035000018B9A88AB0F5807FF8D1A88AB0F5807F75
:1035100003D020682946FFF787FFA88AA97D884243
:10352000ECD3A88AB0F5807F08BF0F2606D000F044
:103530000AF80028FBD021680120C8600020A87587
:103540003046BDE8F08120684FF48E7159E620685E
:103550004FF48E7154E60446DFF8DC84207908EBE2
:1035600040170D4670470079DFF8CC1401EB40108E
:10357000807D00B10120704710B504464FF4927170
:103580002068FFF73DFE20684FF48471FFF738FE96
:1035900021680120086010BD38B50D460446E87D5D
:1035A00000284FF48471204604D1FFF729FED4F897
:1035B000180531BDFFF724FE687ED4F81815EA68B7
:1035C0001154687E401C687631BD2DE9F0410446F7
:1035D000DFF86404217900EB4115A87E184304BF8D
:1035E0002046FFF7C9FF20686968A9BB4FF4A271A4
:1035F000FFF706FE20684FF49271FFF702FE0646C1
:1036000020684FF48471FFF7FCFD804620684FF47A
:10361000A271FFF7F6FD074647EA08003043E9D0FC
:1036200057EA060007D120682946FFF7B5FF687EF4
:10363000E97D8842DED30020E8750EB1032010E05A
:103640000FB10F200DE0A97E2068002907BF0121DE
:1036500041600121016003E04FF40171C0F80413DF
:103660000020BDE8F0812DE9F04104460E462068B7
:10367000174698464FF48871FFF7D1FD00F040F8E7
:10368000206800F23450002506604760B8F1000F52
:10369000206802D10121016005E0D0F8001241F05C
:1036A0002001C0F800122079DFF88C6306EB40108F
:1036B0004068E8B920684FF48871FFF7B9FD80468B
:1036C00020684FF4A271FFF7B3FD074620684FF45E
:1036D0009271FFF7ADFD47EA08010143EAD0217975
:1036E00006EB4111CD7500B1032537B10F2504E07C
:1036F00021684FF40470C1F804032846BDE8F08146
:1037000020684FF4A2718AE5F8B50379DFF8284301
:1037100004EB431595F81CC0BCF1000F1CBF01F071
:103720006043B3F1005F01D01020F2BDD5F804E092
:103730000023BEF1000F4FF401764FF4047708D058
:10374000BCF1000FD0F800C014BFCCF80873CCF85F
:10375000086395F817C0BCF1000F14D02B7E73B12D
:10376000696851B10179006804EB4111097F0029B2
:1037700014BFC0F80473C0F804631120F2BD012324
:1037800029612A7603E0EA75E9606B762B76057984
:1037900004EB4514247F1CB101B0BDE8F04062E7A2
:1037A00001B0BDE8F04010E738B50546A24C2879D5
:1037B00004EB4010017F002904BF807E002807D160
:1037C0002846FFF7D9FE287904EB401001218176C5
:1037D00031BD00B585B0034601208DF808108DF885
:1037E00000000192684619685A680EE000B585B07D
:1037F000024600208DF800008DF8081090680190B6
:1038000000209075684611685268904705B000BD69
:1038100020684FF4AC710BE520684FF4AC71FEE406
:103820007FB50D4604464FF40071FFF7EBFC4FF4F3
:10383000017620B34FF4927100F07DF8F8B14FF4A7
:1038400092712046FFF7DCFCC4F80863A87E08B933
:103850000120606002208DF80000D4F88004C4F8D4
:1038600080040390E87D8DF80800E868019000204E
:10387000E875287629686A68684690472AE0042136
:103880002046FFF7BFFC28B34FF4847100F053F8D3
:1038900000B329462046FFF77FFEE87D697E884217
:1038A00018D1287E010008D0EA68697EE875286989
:1038B000E86000202876687609E0A87E08B9012033
:1038C0006060C4F808630020EA68E875697E2846ED
:1038D000FFF77FFF4FF48E7100F02DF898B1A88AA2
:1038E000A97D884204D229462046FFF79DFD0AE0C3
:1038F0004FF48E712046FFF783FCA97D08001CBFA2
:103900002846FFF773FF4FF4A27100F014F888B156
:103910004FF4A2712046FFF773FCA87E08B1012086
:103920002060E87D30B10020EA68E8752846697EAD
:10393000FFF74FFF7FBD2046FFF763BC7FB50C4606
:103940004FF492710546FFF773FC05F23C56C0B187
:103950004FF4927100F05FF802208DF80000D5F866
:103960008004C5F88004039030688DF80800E06892
:1039700001900020E07520762168626868469047D3
:1039800023E04FF488712846FFF752FCE8B14FF46A
:10399000887100F040F83168E27DC8B2904214D1DD
:1039A000E268207E60B1D5F8000220F02000C5F862
:1039B0000002207EE0752069E0600020207600E0B3
:1039C000E075C9B22046FFF704FF4FF4A271284604
:1039D000FFF72EFC68B14FF4A27100F01CF8E07DF7
:1039E00038B10020E07520463168E268C9B2FFF7BF
:1039F000F0FE4FF490712846FFF71AFC50B14FF4D7
:103A0000907100F008F8A07D20B13169C9B220465C
:103A1000FFF7ECFE7FBD2846FFF701BC06490948C9
:103A20000A7F002A18BFFFF789BFF9E600000000EF
:103A300000070050080500507C47002010030200DA
:103A40008000020000200040274800680047264808
:103A50008068004770B582B0044600260D468DF898
:103A60000060684600F04EF82079002812BF012659
:103A7000012020719DF8000000F05FF8002E12BFB9
:103A800011202560002076BD184B174A984208BFC8
:103A9000104604D0164B984202D102F10800D9E733
:103AA0000720704780B500F0C5F8BDE8014000F080
:103AB00044B910B54901020006D50E4B00F00F04C1
:103AC000234403F8041C01E00B4B19544109012263
:103AD00000F01F0002FA00F0084A42F82100084AEC
:103AE00042F8210010BD000038480020003000409E
:103AF0000030014018ED00E000E400E080E200E06A
:103B000000E100E030B5EFF3108172B6134A93681C
:103B100073B90123124C93602568124B1D40156048
:103B20002360636853604FF0FF326260002200E060
:103B30000122027001B962B630BD08498A6862B1DB
:103B400058B9EFF3108072B6074A0B6813604B68E0
:103B5000536000228A6000B962B67047484800206E
:103B600080E100E0FC06FFBD00E100E04FF0804195
:103B700081B000220A5008580090009801B07047A8
:103B80004FF08041085800B10120C0B270474F4942
:103B9000012008604E480068C003FBD400204D4956
:103BA0008870704738B54B4D2878002408B18524BB
:103BB00013E0A86068602861E86047480068C007B3
:103BC00003D407210020FFF774FF00F006FA10B9B4
:103BD00042490120086001202870204632BD80B58E
:103BE00000F009F83B48C168491EC160C06808B9C7
:103BF000FFF7CDFF05E000208DF800006846FFF7D5
:103C000081BF00F001F801BD9DF80000FFF795BFEE
:103C100038B504002F4814BF00F1100500F1080565
:103C200004E0086828602046496888472968002918
:103C3000F7D131BD38B54FF48070FFF7A1FF254CA7
:103C4000274D48B14FF48070FFF790FF01202860A6
:103C500060700020FFF7DCFF4FF48270FFF790FFE9
:103C600050B14FF48270FFF781FF022028600120DD
:103C7000A070BDE83240CBE731BD002808BFFFF798
:103C8000C7BF704710B582B020B1012806D0032805
:103C900013D013BD13490120086013BDFFF7ABFF1C
:103CA0000C4C207808B9FFF77DFFE068401CE0600D
:103CB0000120A070FFF7A8FF13BD07210020FFF728
:103CC000F8FEFFF78CFF13BD000000000C00004061
:103CD000180400401448002000E100E018050040EE
:103CE0000803004080E100E04FF08042115811B11C
:103CF0000023135001210846704738B5354C05465E
:103D0000207808B1852032BD00F067F908B108209D
:103D100032BD0DB90FF2D00528782F4900F001000F
:103D200008602E480068C00703D407210020FFF771
:103D3000C0FE01202070002032BD38B52948284D32
:103D40000468600706D54FF48470FFF7CDFF08B113
:103D500028688047A00607D54FF48A70FFF7C4FF94
:103D600010B1696800208847600609D54FF48C704F
:103D7000FFF7BAFF20B16968BDE834400120084769
:103D800031BD012802D1164800680047704710B5C0
:103D9000012882B0124C02D003280FD013BD00209E
:103DA0008DF800006846FFF7ADFE206808B10120DD
:103DB00035DF9DF80000FFF7C0FE13BD072100208E
:103DC000FFF777FE206810B106490420086013BD94
:103DD000000000008D4800207805004000E100E070
:103DE000644800200403004000000000202804DA9A
:103DF0007B49C14001F001007047402807DA0121EA
:103E0000203811FA00F018BF0120C0B2704701201D
:103E10007047082804D200281CBF0128042801D1BB
:103E2000002070470120704738B504460D46FFF763
:103E3000DDFF10B942F2010032BD2846FFF7E9FF6D
:103E400010B942F2020032BD6801002C06D5654966
:103E500004F00F02114401F8040C01E06249085516
:103E6000002032BD10B584B004460FF2BC11684684
:103E700000F0FFF802E0684600F0FFF8029A3AB15D
:103E800051681268204690470028F4D1112000E0C4
:103E9000002004B010BD10B584B004460FF2941198
:103EA000684600F0E6F806E0516812682046904740
:103EB000684600F0E2F8029A002AF5D11FBD80B5ED
:103EC0001620FFF793FF28B942F20100BDE8024037
:103ED00000F0E2B8454800784009FFF79AFF10B9B2
:103EE00042F20200F2E74248816821B1016841F4E0
:103EF0008001016001BD3F4913E080B51620FFF746
:103F000075FF28B9BDE8024042F2010000F0C4B8D4
:103F10003748816821B1016821F48001016001BD49
:103F200035494FF48000086001BD10B5334C20784E
:103F300082B008B1082016BD0120A0700020FFF754
:103F400091FF112822D00020FFF7A5FF0FF2FC00FF
:103F50002B4900680090684610DFC0B9012020702E
:103F600007210020A07060701620FFF75DFF08B1E8
:103F700000F092F807211520FFF756FF08B100F076
:103F80008BF8FFF79CFF0120FFF785FF002016BD8F
:103F900010B51A4C207808B9082010BD0120A07077
:103FA000FFF760FF11280BD00220FFF774FF11DF2D
:103FB00038B92070A070FFF7A0FF0320FFF76BFF58
:103FC000002010BD0D48817809B90820704700789D
:103FD000002818BFFFF7DCBFA7E708480078704744
:103FE000FC06FFBD18ED00E000E400E016E400E090
:103FF0004848002000E100E080E100E0884800201F
:10400000BD400200E0B50FF23801684600F031F81B
:1040100005E0486809688847684600F02EF802996C
:104020000029F6D107BDEDE73CA102004CA102003A
:10403000080000004CA102005CA102000800000082
:104040005CA102006CA10200080000000100000752
:1040500001E008314160026841685268914202D132
:104060000021816070470A684B689A42F1D08260F3
:104070007047016009684160EAE7816851B10268F0
:1040800092685118426881605368994202D102F1E6
:104090000801F0E77047FEE710B584B069460022DA
:1040A000002300241CC100F001F81FBD02906A46E5
:1040B000002144F2010000F001B8FEE710B500F065
:1040C00092FA00F081F90028FBD1104C10492088A9
:1040D000000440F0010000F05BF90E480068C007E2
:1040E00000D500BE20880C49000440F0020000F01A
:1040F0004FF9BFF34F8F0948094A016801F4E061A5
:1041000011430160BFF34F8F00BFFDE7F02C00208B
:104110008CA20200F0ED00E098A202000CED00E09D
:104120000400FA0510B5012450E8003F43EA0401F9
:1041300040E8001292F0000FF6D1084610BD80B59D
:10414000DFF8C404FF21816000210160416000F2BA
:1041500014404160016001720FF2C44000F06AFA3D
:1041600080B9DFF8A804DFF8A814DFF8A824401A03
:10417000002103E00C234B43D152491CB1EBD00F7B
:10418000F8D3002002BD30B5B9B1DFF88014DFF8F4
:1041900080240568DFF87C34891A002200E0521C74
:1041A000B2EBD10F07D20C2454431C446488AC42B8
:1041B000F5D1026001E0052030BD002030BD01B521
:1041C0006846FFF7E0FF002803BFDFF84C040099C2
:1041D00050F83100002002BD00000000491EDFF849
:1041E0003824032902EBC0000BD8DFE801F00204F9
:1041F0000608022070470420704700797047407914
:10420000704700207047000070B5DFF8FC434FF4A2
:10421000836084B02044FFF785FF04F214452846EC
:10422000FFF780FF6068A16805E0C2F3891303EB24
:104230009252521C101801EA000204EB82020C3266
:10424000126812F0030FF0D0002201EA000304EB21
:104250008303401CDB684DF82230521C022AF4D341
:10426000009901F00301012907D0022909D1009921
:10427000890DC91C00EB910003E00099C1F3831183
:104280000818002655E8003F03EA060245E8002129
:1042900091F0000FF6D103B160607FBDF0B5059CD1
:1042A000DFF864535E1C264005EB860623400409B4
:1042B00004F00104070CC00000F0380040EA84005C
:1042C00040EA8210C0F3090005EB830340EA812035
:1042D000F76040F00100D860F0BD70B582B0841C7A
:1042E00000208DF800000E466846FFF70BFCDFF853
:1042F000185328683060A61C01E0FFF785FFA86806
:104300002968401C401A69680818B042F5D328682B
:10431000A968084005EB800050F80C1F41F003012C
:1043200001602868201828609DF80000FFF705FC50
:10433000012076BD2DE9F043DFF8CC6283B004465E
:104340000D469946B768904601A94846FFF7C5FF54
:10435000A8B10198801C002108E007EA000206EBE2
:10436000820258F82130D360401C491C4945F4D3DF
:1043700000974A46019B29462046FFF78FFF96F893
:104380001C0418B100F020F80028FBD1BDE8F78329
:1043900000230022CEE780B5009201236A46FFF792
:1043A000C9FF01BD00B583B0009201936A460223A4
:1043B000FFE7FFF7BFFF07BD9348416800688142F0
:1043C0000CBF0120002070472DE9F04F85B0FFF7AA
:1043D000F3FF002840F0B2808B4D4FF482602C1820
:1043E0000020A060BFF34F8F05F10409D9F800A0A9
:1043F000D9F804B005E0C0F3891101EB9050401CDE
:10440000824400F0C1F80C30006810F0030FF2D0C5
:10441000002700F0B9F80AF1010AC0684DF827003A
:104420007F1C022FF5D300990FF2F41001F0030165
:104430000229009947D18E0D3746502EA8BF50262D
:1044400066F39F51009106F1080100F0F5F85FEA6C
:10445000000837D000F038F900F09BF80BEA0A00AA
:104460000BF10101091A8A00B24205EB800018D253
:104470002AB905F10C01B3460025002604E000F13D
:104480000C0193460C35B61A5FFA8BFB08235A468B
:10449000404600F06EF95DB10BF10803F2B2294617
:1044A00003E00823324600F10C01404600F061F9B8
:1044B000F81C0AEB900A2768A068002848D04046FC
:1044C00000F010F957E001F0030101292ED1009905
:1044D000009AC1F383110629A8BF062122F4707245
:1044E00042EA811100910099C1F38311891C89006E
:1044F00000F0A2F85FEA00083DD000F0E5F800F017
:1045000048F8082600270098C0F383108742D2D2CB
:1045100000F03AF800F10C0133460422404600F066
:1045200028F90AF1010A361D7F1CECE7009800F01B
:104530000300032804BFA06800281CD1002020E04D
:10454000787A20B13A6812684146384690477F68C9
:10455000002FF5D1404600F0C5F800208DF80C0082
:1045600003A8FFF7CFFAA06808B9C9F800A09DF822
:104570000C00FFF7E2FAFFF71FFF00F0010080F0E8
:10458000010005B0BDE8F08F0BEA0A0005EB8000E2
:104590007047002308226946404600F0EAB810B58B
:1045A0000021194AD2F8103400E05B6843B11C7A4C
:1045B0008C42FAD1491C0A29F4DB4FF0FF3110E09C
:1045C00011F1010F0DD00172D2F8103423B9C2F8E5
:1045D00010040022426004E05B684360D2F81024BB
:1045E0005060084610BD10B50C48046801210173E5
:1045F00006E00120607220462168496888476468A7
:10460000002CF6D110BD00003035002050A0020073
:10461000C09F0200542C0020C09F0200403900209F
:104620007C480020744800207C480020C4420020C0
:104630001800000000F0A8B82DE9F04104460F462C
:10464000208A061F204600F0B6F8050021D0002081
:104650002871EE8001206871A846F019C01CB0FBDB
:10466000F6F0C0B2461EC8F80040002707E069799E
:10467000491C6971C8F80000046080467F1CB7427D
:1046800009D2204600F097F80028F0D1284600F023
:1046900005F8002000E02846BDE8F081F8B544792F
:1046A0000546611E002200E0521C2D688A42FBD3A1
:1046B000002606E007680146284600F09EF83846C6
:1046C000761CA642F6D3F1BD10B5031D012453E8B4
:1046D000002F02EB040143E8001090F0000FF6D128
:1046E00010BD000038B5041D012554E8003FA3EBC0
:1046F000050244E8002191F0000FF6D100929DF8E8
:104700000010002904BFBDE83240FFF7C7BF31BD2C
:104710002DE9F047C68804468846181D1746B0FBA9
:10472000F6F106FB1102002901E02468491EFCD1C4
:10473000B01ABA468742089D4FF0000988BF8246EA
:104740000AE000F073F80022A7EB0A07D1442468BE
:10475000BA46B74288BFB2464FB1A31808EB09006A
:104760002900524612BF191D0146181DE9E7BDE890
:10477000F08710B582B0002402E010B582B00124A9
:104780000094FFF7C5FF13BD10B508B90E2010BD8A
:104790000368416882681960521A03E019684C1C6A
:1047A0001C600A7011464A1EC9B203680029F5D17F
:1047B0000020187110BD38B5044600258DF8005052
:1047C0006846FFF79FF92068626801688A420ED246
:1047D000491E01600B78258AE2686B43D518A268F0
:1047E000511A0279CBB29A4238BF1A4602719DF82B
:1047F0000000FFF7A2F9284632BD38B50446002074
:104800008DF800000D466846FFF77CF920680168C6
:104810004A1C0260E068228A281AB0FBF2F0087095
:104820009DF80000FFF789F931BDFEE762B38B0701
:1048300008D0521E11F8013B00F8013B00F0248023
:104840008B07F6D1830740F0208000BF103A07D3D2
:1048500030B4B1E83810103AA0E83810F9D230BCC2
:10486000530724BFB1E80810A0E8081044BF51F86E
:10487000043B40F8043BD20724BF31F8022B20F858
:10488000022B44BF0B7803707047083A07D3B1E896
:104890000810083A40F8043B40F804CBF7D253071D
:1048A000E4E7FEE781B000224250405800900098B3
:1048B00001B07047405800B10120C0B270470000FD
:1048C000002840D0DFF82C16DFF82C26096800BF3E
:1048D00000BF00BF00BF00BF00BF00BF00BF9142CC
:1048E0002FD000BF00BF00BF00BF00BF00BF00BF90
:1048F00000BF00BF00BF00BF00BF00BF00BF00BFC0
:1049000000BF00BF00BF00BF00BF00BF00BF00BFAF
:1049100000BF00BF00BF00BF00BF00BF00BF00BF9F
:1049200000BF00BF00BF00BF00BF00BF00BF00BF8F
:1049300000BF00BF00BF00BF00BF00BF00BF00BF7F
:1049400000BF401EC3D170470321C20748BF4FF4C8
:104950000241820748BF48F20121400748BF48F2A0
:10496000022108467047F8B50446DFF89005226832
:10497000DFF88C6540F20C6140F822100125626876
:1049800040F822100027216805FA01F131606168C2
:1049900005FA01F1316040F20D61226840F8221001
:1049A000626840F8221000F021F8B0686168C840E1
:1049B000C00701D57FB9F1BD206805FA00F070602D
:1049C0007F1C00F013F8206805FA00F0306000F05A
:1049D0000DF8092FE9DB606805FA00F0706000F05F
:1049E00005F8606805FA00F03060F1BD042067E763
:1049F0002DE9F8430446904620790D462822DFF839
:104A0000041512FB00F28E1806F122079946397838
:104A100009B1082036E00FF2F44151F82010206867
:104A2000FFF732F808B111202CE0C6F80080C6F874
:104A30000490B060F870B870A87B7871687B10B192
:104A40002846FFF790FFDFF8B4042A6840F20C61B3
:104A500040F822106A6840F822104FF4A1622068E2
:104A6000696810442A6802604160A968C1613068C1
:104A700028B12068297B00030016FFF71AF80120EF
:104A800038700020BDE8F2830279DFF878140068FE
:104A900028235A4311440522C0F800250220FFE7CD
:104AA00081F82200704718B51C78944206D2095D3F
:104AB000C0F81C151878401C187007E0039919B14C
:104AC0000121C161002012BD01214161012012BDFF
:104AD00030B51C7894420ED2D0F818550D5519787F
:104AE000491C1970531EC9B2994205D10221C0F860
:104AF00000120121016230BD9142FAD130BD2DE991
:104B0000F8430E46054630789046994650B9089CC1
:104B100098F80000A0420CBF0127002700F04DF8D4
:104B200058B12EE000F04DF84FF48E7100F04BF8C4
:104B30004FF4847100F047F830E04FF48E7128464E
:104B4000FFF7B8FE80B14FF48E7100F03CF800F032
:104B500034F8B0B9099800904346224649462846A1
:104B6000FFF7A1FFC8B926E04FF484712846FFF78C
:104B7000A1FE90B14FF4847100F025F800F01DF80B
:104B800028B100F01EF801206861307005E043464E
:104B9000224649462846FFF79BFF5FB14FF48271DA
:104BA0002846FFF787FE28B14FF4827100F00BF81A
:104BB000002000E00120BDE8F2834FF49271284606
:104BC00078E64FF4927128466CE62DE9F04784B000
:104BD000054642F2107002908946924698464FF47C
:104BE000827100F054F84FF4927100F050F84FF4D5
:104BF0008E7100F04CF84FF4847100F048F80026F4
:104C000005F12307C9F80062FE703E700120C9F863
:104C10002000C9F8080005F126030C9C00944246C8
:104C200051464846FFF73FFF286848B140F28620CA
:104C3000A860A868C9F8040325E00298401E029005
:104C4000029801280BDB0194CDF80080534605F152
:104C5000260239464846FFF752FF0028EDD1387842
:104C600009F2C44400281EBF20682060002802D03A
:104C7000FFF76AFE06460298012804DA0020E06386
:104C800003260520E063304604B0BDE8F0874846BF
:104C900008E62DE9FE43054642F2107002900E46EA
:104CA000914698464FF4827100F04DF84FF492719E
:104CB00000F049F84FF48E7100F045F84FF484711C
:104CC00000F041F805F123070024FC70B8F1010F52
:104CD0003C700CBF02200120C6F8000201203062A7
:104CE0003060286848B140F28620A860A868C6F8FD
:104CF000040325E00298401E0290029801280BDB75
:104D00000194CDF800804B4605F126023946304625
:104D1000FFF7F5FE0028EDD1387806F2C4450028EB
:104D20001EBF28682860002802D0FFF70DFE044649
:104D30000298012804DA0020E86303240520E863D0
:104D40002046BDE8FE833046ACE5F8B504464FF496
:104D5000417008444FF0FF35456004F12105EE78BD
:104D60001EB1A16801601120F2BD980800F0010099
:104D700080F00100E870180701D50620F2BDA3619C
:104D800004F10C00B2E8C010A0E8C0100C3A907812
:104D900084F820005068E0615078C1F888051078E8
:104DA00001280ED0002806BF580900F0010001209C
:104DB000287028780090204693785268FFF705FF06
:104DC00006E000202870204693785268FFF761FFC4
:104DD000216801B9E970F2BD38B512F0030F01D0B6
:104DE000062032BD13460A4601680079454C282545
:104DF0006843204401B0BDE83040A6E7FEB56C46EC
:104E0000002500260027E0C400F015F808990029C5
:104E100014BF202200220AE0FEB50FF2F405B5E827
:104E2000C0106C46A4E8C01000F005F800226946E6
:104E3000FFF7D2FFFEBD8DF8011001928DF8023010
:104E40007047F0B50C4604F1210585B00646287878
:104E5000019004F1260294F82000009004F123014F
:104E6000E3693046FFF74BFE00283DD1A878F0B942
:104E7000207B022811BF0328E1692269914216D1E3
:104E8000A1696269E37BE261490984F8203001F09D
:104E900001010328297005D1009120463146FFF712
:104EA00094FE21E031462046FFF7F3FE1CE004F1BA
:104EB0000C018CC901A88CC0A87850B1D6F8C404E4
:104EC000C6F8C404810748BF012002D4400702D5B8
:104ED00002208DF800000020E870207E400703D4F7
:104EE000616822686846904705B0F0BD05490648EC
:104EF000A7E70000DC2B00200024F400000700508E
:104F0000080500505447002000300040ED4E0200DC
:104F1000010000000000000000000000012100F07E
:104F20001F029140DFF8B42505E0012100F01F02C7
:104F30009140DFF8AC25400942F82010704701216C
:104F400000F01F029140DFF89C25F4E7490100289A
:104F500007D5DFF8942500F00F00104400F8041C7A
:104F60007047DFF88825115470470000002840D0B2
:104F7000DFF87C15DFF87C25096800BF00BF00BFA3
:104F800000BF00BF00BF00BF00BF91422FD000BFD5
:104F900000BF00BF00BF00BF00BF00BF00BF00BF19
:104FA00000BF00BF00BF00BF00BF00BF00BF00BF09
:104FB00000BF00BF00BF00BF00BF00BF00BF00BFF9
:104FC00000BF00BF00BF00BF00BF00BF00BF00BFE9
:104FD00000BF00BF00BF00BF00BF00BF00BF00BFD9
:104FE00000BF00BF00BF00BF00BF00BF00BF401E2A
:104FF000C3D1704710B5DFF80015DFF800454FF456
:10500000003008604FF48031DFF8F404016401607F
:105010000120206000F0CBF8012060600020DFF864
:10502000E444A06000F0C3F80020A07010BD10B5EB
:10503000044608291CBF0020FFF72EF8606821688D
:10504000BDE8104008472DE9F84FDFF8B854DFF805
:10505000B8748146686800904FF0000800E06C600A
:10506000B9F1000F05D04C46D4F81C905DE000204B
:10507000207438787978884200F08E8001461820B4
:1050800010FB01F03844491CBB78001DCAB29A429B
:1050900008BF0021397002784168012A0C4635D0DA
:1050A000DED3032A29D0DBD268688246834656467F
:1050B00001E0B246F669002ED9D08E42F9D1B24550
:1050C00002BFC0696860002809D1DFF840140120E0
:1050D00008600020A8600120E87000F068F83068DF
:1050E000F669CAF81C6016B131684018306068680B
:1050F0008345BCD04FF00108B9E7686800281FBF9E
:1051000000210174C0696860F7D1B2E7217C0029F1
:10511000AFD181686160C168A1600169E1604069E7
:10512000A061E87808B100206060A8686168DFF8D5
:10513000E0330A1A22F07F429A4202D2A068801815
:1051400007E0401AA16820F07F40884234BF081A67
:105150000020206000206060A060012020740020FA
:10516000E0616868002806D001682268914203D394
:10517000891A0160E06172E701460B68934205D22B
:105180000846C969D21A0029F7D101E09B1A0B60C1
:105190002260E161C46163E7B8F1000F02BF686893
:1051A0000099884214BF01200020BDE8F28F2F2013
:1051B000DCE62DE9F843DFF84C436068002838D07E
:1051C000D0F80080DFF84C532E68A768F01B20F061
:1051D0007F4000F10309A07888B9CF484FF48031AF
:1051E000016401601120FFF7AAFE1120FFF796FE6F
:1051F000CA4901200860FFF7DAFF0120A070C1450D
:1052000038BFC14609EB070020F07F40E863801BF0
:105210002968891B21F07F4120F07F40C91C88420A
:105220000AD22868E863FFF7C2FFBDE8F243112005
:105230007BE6BDE8F143DDE6BDE8F1832DE9F04111
:10524000B04C6578D4F808C0636827780021002640
:10525000AF426246984638460ED0401CC0B2022883
:1052600008BF002004EB8007FF68BC442CF07F459A
:10527000A5604FF0010C01E000278C46BCF1000F47
:1052800020701DD08C4613E03F1A8444002030600B
:105290001846D6F80CE0F369BEF1000F08D00CEB0D
:1052A000020525F07F457560F161C6F808E001460A
:1052B0002BB11E4630688742E6D2C01B3060012603
:1052C00063600846FFF7BFFE00280EBF002E404671
:1052D000FFF76FFF0020E070BDE8F0818A49487059
:1052E000704710B588494A788C78521CD3B2A342D3
:1052F00008BF00220C78D3B2A34201D1002010BD18
:1053000002701822487850430844001D10BD70B543
:1053100082B0044600260D468DF800606846FEF710
:10532000F1FB0DF10100FFF7DCFF08B9042605E0F1
:10533000057044609DF80100FFF7D0FF9DF8000064
:10534000FEF7FBFB16B91420FFF7EFFD304676BDE4
:105350002DE9FC4172486B4C002101644164816479
:10536000C1640160416066689EB36A48DFF8B48139
:105370000068A168401A002520F07F473068874206
:1053800015D33F1A45193046F669017C69B10021F1
:105390000174424641690091082180690190684684
:1053A00000F0DEF808B1FEF777FE002EE6D1607857
:1053B0002178814201BF401C6070C0B2022804BF46
:1053C00000206070607804EB8000C5601420FFF757
:1053D000ACFDBDE8F38131E738B5FFF70BFE4A4875
:1053E000484C4C4D002101800B21817000206060F1
:1053F000207060701420FFF7A2FD07211420FFF732
:10540000A5FD1420FFF78AFD002068600721112008
:10541000FFF79CFD2868A060002032BD3A4B9B78C6
:1054200043B1130018BF002801D10720704700685E
:10543000037C0BB108207047037441744261002063
:1054400070472DE9F04106462F488078002818BFA4
:10545000002E82B00C46904605D0052C38BF0720A0
:105460002CD3706908B9082028E0707C01280CBF93
:105470002546002500278DF800706846FEF742FBA0
:105480000DF10100FFF72DFF08B904270DE0012100
:10549000017046601F4909688160C4600561C0F8F9
:1054A00014809DF80100FFF719FF9DF80000FEF73A
:1054B00044FB17B91420FFF738FD3846BDE8F681E4
:1054C00011498978002918BF002801D0416909B91C
:1054D0000820704700210174022118E700E100E074
:1054E00000E200E080E200E018ED00E000E400E00F
:1054F000DC2B00200024F40080E100E004100140D7
:1055000008130140EC470020B8410020081001407A
:10551000FFFF7F000415014004130140001001400B
:10552000001101402F5002003B4A9288904234BF44
:10553000401C0020C0B2704710B512F003030DD11B
:10554000354B9A604C1CE40402EB1442DA600022F2
:105550005A701A7058809980002010BD072010BD25
:105560002DE9F0472C4E04467088884282B0884668
:10557000154635D300208DF800004FF6FF796846B8
:10558000FEF7C0FA96F800A07078FFF7CDFF5045FF
:105590004F4604D077787078FFF7C6FF70709DF89B
:1055A0000000FEF7CAFA4F4518D0B06840F83750EF
:1055B00000EBC705002C18BF5FEA08000AD073880B
:1055C000F0687B43424621461844FFF72FF9A5F8BF
:1055D000048001E00020A880002002E0042000E018
:1055E0000920BDE8F68738B50B4C0FE02278A36898
:1055F000658803EBC20055438188E06853F8322088
:10560000284490472078FFF78FFF2070207861783A
:105610008142EBD131BD0000284800200870000A0B
:1056200048700220704730B50D4683B00446288884
:105630000930824201D20C203EBD68466DDFF0B9D0
:105640002988082060541B212888401C28800622B5
:1056500080B221540DF1010100F07FF92044FFF7E1
:10566000E5F82888801D288080B29DF800104A083F
:1056700018BF012222542888401C288000203EBDEB
:1056800070B5054682B028780C46012804BF6978B9
:10569000002901D1072076BD11888E1CB3421FD38B
:1056A000012804D168780818801C834218D3581A3E
:1056B000831EADF80030694610882044801C7DDFD1
:1056C00068BB297802290FD1BDF8001098B2884232
:1056D00008D20820ADF80030BDF80010FF290ED325
:1056E0000C2076BD0920F7E708200129F2D16E7859
:1056F00099B2B14288BF3146ADF80010ECE713888B
:10570000491CE1541188491C118089B260541088E9
:10571000401C1080BDF8001008181080002076BDD5
:105720002DE9FC470A9E0B9C37884FF0000E05467A
:1057300088469146F24606E030889DF800104018F1
:1057400030800AF1010A288882452DDA686850F80D
:105750002A0001900022694601A864DF88BB9DF8F9
:1057600000004845EDD1BEF1000F31889DF80020C2
:1057700014BF002002205218101884421DDBBEF115
:10578000000F09D1481C30804FF0010E80B203F8A1
:1057900000803088401C3080694630881A1801A883
:1057A00064DF0028C8D00CE0BEF1000F08D03088BC
:1057B000C01B401E80B2FF2801DD0C2001E0D8553F
:1057C0000020BDE8F6872DE9FC41089F099C019463
:1057D00016460546984600970222FFF7A1FF38B902
:1057E000019400974346102231462846FFF798FF60
:1057F000BDE8F681F8B51446054620880E46811DA1
:105800008B4201D20C20F2BD298806290EDB40F61E
:105810008147B9424FF6FF7301DB994206D16A888E
:10582000062A03DBBA4203DB9A4205D00720F2BD09
:10583000994201D08A42F9D305213154122120889E
:10584000401C208080B231542088401C208080B2CF
:1058500031182888FFF7E2FE21880818208080B2DE
:1058600031186888FFF7DAFE2188081820800020A8
:10587000F2BD70B5044616460D46A0883188801CDE
:105880004218921C934201D3FF2801D30C2070BD13
:10589000401C6854FF213088401C308080B229545D
:1058A0003088401C308080B229182088FFF7B6FE6F
:1058B000318808183080A28811000BD0A16809B97E
:1058C000072070BD80B22844FEF7B0FF3088A18861
:1058D00008183080002070BD2DE9F04100F1280843
:1058E0000C46D8F80000154690B3002708E080B2B7
:1058F0002044FEF79BFF2888B188081828807F1C69
:10590000F8B298F80410884224D2D8F80000FFB208
:105910000C2111FB07F14618B088801CFF2801D329
:105920000C2018E02988401C6054162100F015F85E
:10593000215400F012F821183088FFF76FFE2988F3
:1059400008182880B2881100D9D0B1680029CED1BA
:10595000072000E00020BDE8F0812888401C288056
:1059600080B270472DE9F043174683B00546B7F87B
:105970000090002005F12C080E46388098F80110A0
:1059800031B14A4639463046FFF74DFE002835D141
:10599000A978B9B13888001D81452ED3684679DFD2
:1059A00000282BD1398803207054192100F085F884
:1059B00080B23118BDF80000FFF730FE39880818B2
:1059C00038800020E9780A000FD03888C21C914541
:1059D00049B212D30222325401223888401C388046
:1059E00080B2325400F069F800206968C1B191F9C1
:1059F00000003988CA1C914501D20C2052E00222D5
:105A000072540A223988491C398089B27254398803
:105A1000491C398089B270543888401C3880002075
:105A2000298949B100F044F80622022105F1080055
:105A3000FFF7C9FE002835D1298A41B100F038F8B6
:105A40000722032105F11000FFF7BDFE50BB298B93
:105A500041B100F02DF81522142105F11800FFF7CF
:105A6000B2FEF8B92C6A2CB100F01EF82046FFF700
:105A7000C1FEB8B96C6A2CB100F016F82046FFF7E9
:105A8000F8FE78B998F8001029B100F00DF8284612
:105A9000FFF722FF30B9297821B100F005F8284638
:105AA000FFF7EEFDBDE8FE834B463A4631467047B0
:105AB000CDF804900097334670473888401C3880F2
:105AC00080B231543888401C3880704730B591B06E
:105AD0000C461F21ADF80210ADF8001050B1C1788E
:105AE00049070DD50DF1020209A9FFF73BFFE0B907
:105AF00009AD02E00025ADF802005CB1E07808B124
:105B0000072012E06A4601A92046FFF72BFF60B983
:105B100001AA02E00022ADF80000BDF80030BDF897
:105B20000210DBB2C9B2284672DF11B030BDFEE709
:105B300000F1804000F5C0400068012818BF002037
:105B4000704700F1804000F5C04081B00021016045
:105B500000680090009801B0704741EA420141EAB4
:105B60008302009942EA0122019942EA0141DFF8E9
:105B7000142442F8201070474FF0A04202EB80003E
:105B8000D0F8002722F44032C0F80027D0F80027D0
:105B900042EA0141C0F80017704738B50FF20044DF
:105BA00025680095034606E05DF82340D4F81045CB
:105BB00042F8044B5B1C0C18A342F5D331BD012203
:105BC00000F00703C0089A40085C10407047DFF8F7
:105BD000B813084490F9300008288041C00F70477E
:105BE000DFF8A413084490F930000828ACBF012066
:105BF00000207047DFF89013084490F93000C0434C
:105C0000C00F7047F0B514004FF0FF3307BF0824F2
:105C10000C2500240825DFF8706300E0641CAC420A
:105C20000DD256F824709F42F8D1331883F83040D3
:105C300046F8241012B9311981F84800234658B2A9
:105C4000F0BDDFF844134FF0FF3241F82020082860
:105C5000A4BF081880F84820704738B5DFF82843FB
:105C600094F8540008B1082032BDFF22202104F12D
:105C7000300000F097F900252846FFF7E2FF6D1C81
:105C80000C2DF9DB07210620FDF713FF4FF4BE7042
:105C9000FFF757FFDFF8F4124FF0004008600120D3
:105CA00084F85400002032BDDFF8DC0290F8540084
:105CB00000B101207047F0B583B005460F46164687
:105CC000FFF798FF002408B108243FE0FA78314636
:105CD0002846FFF797FF064616F1010F35D0B87832
:105CE00050B14FF0A04000EB8500D0F8001721F034
:105CF0000201C0F8001707E00190009000227B78B5
:105D000000212846FFF729FF3978F87898B1A04894
:105D1000A04B50F826201A4040F826202B020904F8
:105D200050F8262003F4F85301F44031194311438D
:105D300040F826100AE094488219304492F848202E
:105D400042EA811180F8481000E004242046FEBD9C
:105D5000F8B50E4604468C4DFFF742FF2F19B8B137
:105D600097F93000284490F948000006800F032876
:105D700005D189480068E040C00702D503E001284A
:105D800001D1022100E003212046BDE8F440F3E602
:105D90002046FFF71CFFD0B197F930407C4850F8FF
:105DA000241041F0010140F82410A00000F580709B
:105DB00000B2FFF7C6FE002E1EBF97F9300055F85F
:105DC0002000002803D001207049A0400860F1BDE8
:105DD00010B50446FFF704FF20B12046BDE810408F
:105DE0000021C9E62046FFF7F2FE78B1664868490F
:105DF000204490F9300051F820205208520041F818
:105E00002020012101FA00F06449086010BD6249B8
:105E10000968C14001F0010070472DE9F04F85B0DD
:105E2000002600964FF48079012708250FFA89F0A3
:105E3000FFF77EFE00281EBF54480068384204D099
:105E40000FFA89F0FFF77DFE3E437F006D1E09F1DA
:105E50000409EBD14FF4BE70FFF76AFE50B14FF466
:105E6000BE70FFF76EFE6A4601210020FFF795FE27
:105E700046F000463006DFF8109115D00127444C5B
:105E800037420DD054F8250054F8251059F8252034
:105E9000130005D0090C01F00301C0F30420904762
:105EA0007F006D1C082DEBD3002E67D503A80021C1
:105EB00001604FF0FF30029003AF02E000900398C2
:105EC00002900026002509EB050090F95000C4B2AD
:105ED00010F1010F24F0C00842D002A94046FFF79C
:105EE0006EFE00283CD0A00900F0030409EB080076
:105EF00090F9300059F820A0BAF1000F02D1032C1C
:105F00002ED101E0032C08D14FEAD8000122395CE0
:105F100008F007039A40114339546946194850F86C
:105F20002800000C00F0030B4046FFF748FE18B1B4
:105F3000BBF1020F14D102E0BBF1030F10D1032C0F
:105F400008D1BBF1020F0CBF032102214046FFF72D
:105F500013FE761CBAF1000F02D021464046D0470E
:105F60006D1C042DAFD3F6B246B101AA0121002069
:105F7000FFF713FE0198009988429FD105B0BDE854
:105F8000F08F0000000700506845002004630040C7
:105F900010650040FFE0FCFF100500500863004062
:105FA0000000005062F30F2262F31F4200B500BFF1
:105FB000130096469446103928BFA0E80C50FAD832
:105FC0005FEA417C28BF0CC048BF40F8042BC907DA
:105FD00028BF20F8022B48BF00F8012B00BDFEE7C8
:105FE00010B50446207890B9A189A068002200F07D
:105FF00041FAA068A189084410F8010C0D2806D1C7
:10600000BDE8104000220121B5A000F033BA10BD58
:10601000007840B9DFF8A00300883B2176DF002834
:1060200018BFFEF739B87047FEF736B880B500F0F4
:106030008EFB08B1FEF730F832DF00281CBFBDE848
:106040000240FEF729B801BD80B548B1032808D148
:10605000022000F00FFD20B1BDE80240FEF71CB8A1
:106060005FE101BD30B58BB0DFF84C5304462188A9
:106070002888012947D0102910D011291BD01329B5
:106080002AD0212920D023292BD03B2937D05129B0
:106090003DD052292ED0562931D058E0C7480FF2B2
:1060A000503100F056F8072000F0E4FC08B1FDF78D
:1060B000F3FFA08806E0C1480FF2403100F049F834
:1060C0004FF6FF70288042E00FF25C3000680090CD
:1060D0006946A0888FDF37E00023002285217FDF1B
:1060E00032E001A800210022C0E90012A08801A925
:1060F00090DF29E0002300220021A9DF24E0A0880E
:10610000132176DF20E0A088002166DF1CE003A8D1
:10611000A11D1022FEF78AFB9DF80C00B8B19DF876
:10612000140004281CBF0628052810D19DF80C0077
:10613000022818BF01208DF81C0007A94FF4C17078
:10614000ADF82000A088A8DF08B1FDF7A5FF0BB0CF
:1061500030BD0088000440F00300FEF719B99648EE
:106160004A880088904202BF088840F67722904211
:106170000CD188880FF29421C31E904800889BB2EE
:1061800000041A4640F00300FEF70CB9704710B542
:106190008B4C8C49204600F04CFD08B1FDF77CFF8C
:1061A0004021204600F054FD00281CBFBDE81040EF
:1061B000FDF772BF10BD10B5B2B0FDF7B6FE08B165
:1061C000FDF76AFF002000906946012000F0B5FE4F
:1061D00008B1FDF761FF684600F03AFF08B1FDF72E
:1061E0005BFF11208DF8000007220FF2FC116846BA
:1061F0007CDF08B1FDF750FF01A80021C0E90011C4
:106200001020ADF80400ADF808103C20ADF80600F1
:106210004FF4C870ADF80A0001A87ADF08B1FDF7A5
:106220003BFFFFF7B4FF6848634C00906946201DB0
:1062300001F063F908B1FDF72FFFA0210AA801F0D2
:106240009BF902208DF82800402100208DF82A00BB
:1062500005208DF82B000120ADF8740004F1F80042
:106260001E9001208DF8A40029A8C160B42101610D
:106270005649C16104F120000AA901F084F908B16E
:10628000FDF70AFF012104F1200001F079F91C213A
:1062900003A801F071F9002003904FF4203004901E
:1062A0004FF47020059003208DF818000020ADF801
:1062B0001A008DF81C00464808904648099003A82B
:1062C00001F0A3FB08B1FDF7E7FE032104F1200074
:1062D00001F0F4F908B1FDF7DFFE32B010BD0000A7
:1062E0000A00000080B534490A88042804D0072831
:1062F00006D00A2814D114E01321104676DF07E0F7
:106300004FF6FF7082420BD101F1200001F0FBFA41
:10631000082805D000281CBFBDE80240FDF7BCBE20
:1063200001BDBDE8014081E610B52B4982B00020D7
:1063300008603C21294A0820FFF7FEF808B1FDF764
:10634000ABFEFFF749F808B1FDF7A6FE244C204646
:1063500001F043FC00F03AF90020FDF7F0FE08B12F
:10636000FDF79AFE01F08AFC0020FDF7C6FC08B19B
:10637000FDF792FE01F09DFC08B1FDF78DFE204671
:1063800001F079FD1749032000F07EFB08B1FDF70D
:1063900083FE6946002000F027FA08B1FDF77CFE75
:1063A000FFF709FFFFF71FF9FEF70EF801F0A0FC59
:1063B00001F0BDFCF6E700009C2A0020F02C002034
:1063C000004800205F610200E15F020049600200B6
:1063D00011600200296002000C12001050390020E8
:1063E00019660200E56202004665656C4B6974003F
:1063F000436F6E6E65637465640000004469736387
:106400006F6E6E65637465640000000044617461C2
:10641000206C656E2069732073657420746F203062
:106420007825582825642900000000003DE038B593
:106430000024AE4D06E0285D01F048FE0028FAD1A8
:10644000641CA4B2AA4840798442F4DB31BD80B513
:10645000017819B1022909D008D301BD684601F0BD
:106460001CFE9DF8000000F071F801BD4068FDF7CA
:1064700013FE01BD70B504460D465AB19D4A002178
:106480000020FFF76DF89C49086068B1BDE87040D6
:10649000FDF702BE002605E0A05D01F017FE002812
:1064A000FAD1761CAE42F7DB70BD70B5904C934DBF
:1064B0002378A278E978A878002B30D1912A8B4EE6
:1064C00008D0922A09D0932A0AD0992A13D09B2A5D
:1064D00018D02EE00C281BDB18E00C2818DB15E088
:1064E000217207200A2101F053FBE978A87801F016
:1064F00099FB01201BE000F01FF80220B0700F2074
:10650000F07007E0042801DA012801D1002068803A
:1065100000F012F8072060710120A07109E0932AB1
:1065200004BF227A8A4204D101F07CFB0020207053
:1065300020710020A07070BD072229463046FEF76A
:1065400085B96B480021C1718181704710B56849D8
:106550006A4B8A899854501C888180B2CC791A1869
:10656000042C32D8DFE804F003093110190012F8C6
:10657000010C022822D1012026E012F8010C00F0C3
:10658000900090281AD11EE012F8012C032A04BFB3
:106590000422CA71402818DB10E012F8012C0A2AE4
:1065A0000AD15878564A887000210020FEF7D8FF9B
:1065B00020B1FDF771FD01E0402802DBBDE810408D
:1065C000BFE7032A01D00320C87110BD484800B5B9
:1065D00000210171017081708BB00FF22C1204A99F
:1065E00092EC060B81EC060B00F1100100914FF4C8
:1065F00088724FF480711044019102900391072337
:10660000404A694604A801F0F2FC08B1FDF744FDD8
:10661000FFF797FF0BB000BD38B504463448027849
:1066200012B1012A05D031BD817809B300218170F2
:1066300031BD49B1002534F81510B02000F019F82B
:106640006D1C052DF7DB31BD20788DF800006078DA
:106650008DF80100A0788DF8020000208DF803006D
:106660000098010AE078BDE8344000F0F00000E056
:1066700031BD10B51E4A1D4B947A102C03DB00244B
:10668000947209B201E009B244B902241C70932447
:106690005C7000245C801C7105245472547A185577
:1066A000601C5072C0B21954401C50720912C0B222
:1066B0001954401C917A5072491C9172C9B20F2929
:1066C00012D100219172C0B203211954401C5072A2
:1066D0000A21C0B21954411C517251710122BDE806
:1066E0001040C9B21846C5E610BD0000C0450020E4
:1066F000A83F00202F6402008448002000460020AC
:106700002D6402004F6402000E0000000D00000026
:10671000FF000000FF0000000000000000A04E008D
:1067200080B5012200F05CF8002818BF07280DD1C1
:1067300000F051F8002818BF072807D10A220021CD
:1067400000F04FF8002814BF0728002002BD80B5D4
:10675000002000F001FA002818BF062806D1012009
:1067600000F0FAF9002814BF0628002002BD10B579
:10677000294C00886168102802D011281ED010BD55
:10678000C1B9012200F02DF8002818BF07280CD14C
:1067900000F021F8002818BF072806D1042200F0D5
:1067A0001FF8002818BF072804D018B121680A0074
:1067B00018BF88476068401C606010BD481E60605C
:1067C00008D1FFF7ADFF28B121680A001CBFBDE862
:1067D0001040084710BD07220221012000F093B9A4
:1067E0000221002000F08FB970B50B4E0C46002539
:1067F000306054B1012000F022F808B1022003E01B
:1068000000F01DF800B10B202070706810B9FFF780
:1068100087FF0546284670BD544800204FF0A0422F
:1068200002EB8000D0F8002722F44032C0F80027A5
:10683000D0F8002742EA0141C0F80017704701F084
:10684000C9BCF8B506460F4601F0D3FC002430BBA6
:10685000B84D687887B1022F17D017D22C7840B185
:10686000EA1D4FF4004105F15400FEF7EAFD00B9BE
:10687000EE71A878287209E005F15400FEF720FEB9
:10688000AC78287AA0420AD100E00446200006D065
:106890002969080003D02046BDE8F4400847F1BD4F
:1068A00000780221CDE7A348807900281CBF002092
:1068B00001F064BC01F067BC2DE9F9419D4E70798F
:1068C00082B0002710B17771FFF7EDFF9DF8080047
:1068D000994DDFF868829A4C0090172864D8DFE859
:1068E00000F0930C0C1E2530454B4F574F57AC64AE
:1068F0006464646493969CA3ACAC074600F0ACF867
:1069000030B100F0A6F8022F14BF40468D4821E0B8
:1069100001F02FFC022F0CBF204628461AE000F0A1
:106920009BF8A0B100F095F8874813E000F094F8C8
:1069300018B100F08EF840460CE001F01AFC284631
:1069400008E000F089F810B100F083F801E000F0F1
:106950007DF8204600219DF80820327100234FF475
:106960007A7201F055FC0146002218E0002001F087
:106970000EFC0620307107E000F068F8072060E0A8
:106980000120707101F003FC002240F6CD4106E0C9
:106990000120707101F0FBFB00224FF4804106F1F1
:1069A0001400FEF74EFD07464CE006F13400FEF7FA
:1069B00087FD07460098D0F111001FD0F7B90228D3
:1069C00017D380B2C8214843C117C90341EA5041D7
:1069D000C00310F5FA7041F100014FF47A72002300
:1069E00001F016FC0146002206F13400FEF729FDF5
:1069F0000746022001F0BDFB012003E0022001F068
:106A0000BDFB0020B0711DE0FFF74DFF17E0FFF761
:106A10004AFF00F01BF8132013E0FFF744FF0120AA
:106A200001F0A7FB14200CE0FFF73DFF00F00EF88B
:106A3000012001F09EFB152003E001F0A6FB9DF86C
:106A400008003071384604B0BDE8F081002001F044
:106A500090BB002001F092BB002001F086BB3548BE
:106A6000017BC90744BF0079FFF726BF70470220AA
:106A700001F08DBB2F4A127B01460020D20744BF94
:106A80000846FFF719BF704770B50446294800252E
:106A9000C4600161A00720D5002606E00122012183
:106AA000304600F030F80546761C55EA0600F5D071
:106AB0003DB940F2666201210FF2BC0001F07AFCA0
:106AC000054615B901F0A9FC054635B91F4A0FF274
:106AD000A4000021FEF7A2FC0546E00748BF01F034
:106AE0006BFB35B91A4A0FF284000021FEF796FCC1
:106AF000054635B9174A0FF278000121FEF78EFCE2
:106B00000546284670BD002380B9012A03D101291A
:106B10000CBF0E220022074831B1022902D005D253
:106B2000027004E0427002E0827000E00723184621
:106B300070470000F4440020F401C800F401D007BD
:106B4000F4016400F4018403F4019001A1680200DF
:106B50005F6A02006F6A020080B501F051FB0321F9
:106B6000FFE7FFF75BFE002002BD000008450020A4
:106B70002845002048450020190003004368020012
:106B8000F721018017214180002101714171FB2112
:106B900081711B21C1717047F0B583B08C88027977
:106BA00000EBC405AE1DB271C97B012902D00229D8
:106BB00002D003E0008800E040883080318870888F
:106BC0007D4F88420ED220469EDF020002D1012076
:106BD000707107E0112A02D10120307102E038887B
:106BE00000F020F8F079B17988421AD20FF214300F
:106BF0006946D0E90023CDE90023287BADF80000E9
:106C00000022287BADF80200204690DF030008D068
:106C100038880FF2C0110004224640F00100FDF751
:106C2000C1FBF7BD0FF20C21000440F00100FDF79D
:106C3000B2BB80B508B90E2002BD0161F721018009
:106C40004180FB210171801DFFF79AFF002002BDEA
:106C500008B90E207047A1F11702E12A2EBF0720C4
:106C600001800020704770B5034690B098880028D6
:106C70000C4640F09F8018884F4D10280AD01128EC
:106C80000DD023286AD024284AD03A280BD0552882
:106C900027D07FE019462046FFF77EFF7AE0A01D4F
:106CA000FFF76EFF76E0A61D58893188884228BF1D
:106CB0000846708070881728B8BF17207080206938
:106CC00000281CBF7079002807D00FF240206946C9
:106CD00000F074F8204622699047002070713071EE
:106CE00058E0D888A61D17283188B8BF17208842D9
:106CF00028BF0846708000203071ADDF28B1024601
:106D000028880FF27411FFF78FFF7079002841D1A6
:106D1000206900283ED00FF2FC1000F04FF818E078
:106D200002A8191D3422FDF791FDBDF80820BDF819
:106D30000C0004EBC2035873206958B30FF2DC1641
:106D4000D6E90001CDE90001ADF80220587B8DF8AD
:106D5000040069462269204690471BE0A01D19895E
:106D60008279CEB2B24288BF32460FF2B816D6E967
:106D70000001CDE90001ADF80020ADF802200022AD
:106D80009888694690DF020004D028880FF22C1101
:106D9000FFF74AFFA07A68B1E18800209EDF18B9AA
:106DA000A0720120E07205E0112803D00246288875
:106DB000FFF738FF10B070BD602C0020D0E9002331
:106DC000CDE900230020ADF802007088ADF8040082
:106DD0007047000073645F626C655F6761705F6439
:106DE0006174615F6C656E6774685F75706461740F
:106DF00065282920287265717565737429206F6E66
:106E000020636F6E6E656374696F6E2030782578CD
:106E10002072657475726E656420756E6578706534
:106E2000637465642076616C756520307825782EF2
:106E30000000000073645F626C655F676174746377
:106E40005F65786368616E67655F6D74755F7265B5
:106E5000717565737428292072657475726E656426
:106E600020756E65787065637465642076616C75F5
:106E70006520307825782E0073645F626C655F67EB
:106E8000617474735F65786368616E67655F6D7464
:106E9000755F7265706C7928292072657475726EE1
:106EA000656420756E6578706563746564207661CD
:106EB0006C756520307825782E00000073645F6261
:106EC0006C655F6761705F646174615F6C656E675C
:106ED00074685F7570646174652829202872657014
:106EE0006C79292072657475726E656420756E65A3
:106EF000787065637465642076616C7565203078A0
:106F000025782E000000000000000000770A000035
:106F100000000000770A0000000000007ADA00009C
:106F200000000000000000000000000000280FBF6B
:106F30000E205D4901600020704770B506460C4682
:106F400084B02046FFF7F2FF002870D100F071F8FE
:106F500001208DF802008DF800600320ADF80400D8
:106F600069462268514D202069DF38B101F070FA7E
:106F7000024628880FF28C1100F09CF800F05FF8B0
:106F80008DF801108DF8021069462268402069DFF3
:106F900038B101F05DFA024628880FF2B01100F016
:106FA00089F800F046F8F7208DF80060ADF802008F
:106FB00069462268232069DF38B101F049FA0246A8
:106FC00028880FF2D41100F075F800F038F86946FF
:106FD000226869DF38B101F03BFA024628880FF2D7
:106FE000002100F067F800F024F84FF4B060009042
:106FF00069462268A12069DF38B101F029FA02460A
:1070000028880FF2282100F055F800F012F88DF8CA
:10701000001069462268A02069DF38B101F018FA33
:10702000024628880FF2582100F044F8002004B0EE
:1070300070BD68460021002200230EC070476846DC
:107040000021002200230EC001208DF800007047AF
:1070500070B50446154E226860DF236893420546EA
:1070600016D030880FF26C21000440F00200FDF7CA
:1070700099F90F4800682168800200F10050421A17
:1070800030880FF28021000440F00200FDF783F900
:1070900045B1284601F0DCF9024630880FF288211C
:1070A00000F008F8284670BD682A0020142D002042
:1070B0000C010010000440F00100FDF76CB910B5A0
:1070C000ECB00FF284244FF4CE70ADF800006946A6
:1070D00004A861DF28B1052818BFFCF7DDFF6CB0FC
:1070E00010BD214601A8FCF7C4FF06E051681268F4
:1070F00004A8904701A8FCF7C0FF039A002AF5D125
:10710000E1E7000073645F626C655F6366675F73ED
:10711000657428292072657475726E656420257304
:10712000207768656E20617474656D7074696E6730
:1071300020746F2073657420424C455F434F4E4E60
:107140005F4346475F4741502E00000073645F6213
:107150006C655F6366675F73657428292072657468
:1071600075726E6564202573207768656E20617482
:1071700074656D7074696E6720746F207365742018
:10718000424C455F4741505F4346475F524F4C4535
:107190005F434F554E542E0073645F626C655F63AE
:1071A00066675F73657428292072657475726E65F1
:1071B00064202573207768656E20617474656D7036
:1071C00074696E6720746F2073657420424C455F4C
:1071D000434F4E4E5F4346475F474154542E000095
:1071E00073645F626C655F6366675F7365742829AB
:1071F0002072657475726E656420257320776865EA
:107200006E20617474656D7074696E6720746F2090
:1072100073657420424C455F434F4D4D4F4E5F4365
:1072200046475F56535F555549442E0073645F626D
:107230006C655F6366675F73657428292072657487
:1072400075726E6564202573207768656E206174A1
:1072500074656D7074696E6720746F207365742037
:10726000424C455F47415454535F4346475F415446
:1072700054525F5441425F53495A452E000000006A
:1072800073645F626C655F6366675F73657428290A
:107290002072657475726E65642025732077686549
:1072A0006E20617474656D7074696E6720746F20F0
:1072B00073657420424C455F47415454535F4346C5
:1072C000475F534552564943455F4348414E474502
:1072D000442E000052414D2073746172747320611A
:1072E0007420307825782C2063616E2062652061DF
:1072F000646A757374656420746F20307825782E05
:107300000000000052414D2073697A652063616E70
:107310002062652061646A757374656420746F20EF
:10732000307825782E00000073645F626C655F65BD
:107330006E61626C6528292072657475726E656471
:107340002025732E00000000B0A10200D0A1020091
:107350000800000010B590B00446032101A800F019
:107360000BF911208DF804008DF805001C219DF803
:10737000060000F0F90040F002008DF8060008A8B1
:1073800000F0FAF89DF8200040F010008DF8200081
:107390000321002009900B900C9001A80D90002073
:1073A0000E9020788DF80A000320ADF8080068469A
:1073B00000F0E2F800F04EF803A800F0DDF802A8B3
:1073C0000390CDF810D00120ADF81400231D00204B
:1073D000ADF8160003AAF420ADF8180008A96088DB
:1073E000A2DF10B010BD10B58EB004461C2107A856
:1073F00000F0C2F89DF81C0040F00C008DF81C0055
:107400000321002008900A900B900C900D9020789A
:107410008DF806000220ADF80400684600F0ACF8D4
:1074200000F018F802A800F0A7F801A80290CDF823
:107430000CD00120ADF8100004F10C030020ADF8D1
:10744000120002AAF420ADF8140007A96088A2DF98
:107450000EB010BD11208DF800008DF80100142130
:107460009DF8020000F0E30040F003008DF80200F8
:10747000704730B50C0018BF002885B03BD001889C
:10748000102906D0112906D0502908D0572928D014
:1074900031E0808801E04FF6FF70A0822BE001947C
:1074A000C1882389994204BF028A022A0AD1123074
:1074B00001F079F818B10120A07502200EE0A07546
:1074C00003200BE0A289914215D1A16999B100F185
:1074D00012010291008AADF80C0000208DF8000026
:1074E00006E00FF284000FC86D4685E80F00019496
:1074F0006846A169884705B030BD70B504000D46E7
:107500000FF254000FC886B001AE86E80F0014BF1A
:10751000002D0E201DD04FF6FF70A0822146286856
:10752000A0610020A07501A862DF90B920788DF8D5
:107530000200A21C0120ADF800006946A0DF40B99E
:1075400029462046FFF74FFF18B929462046FFF786
:1075500001FF06B070BD00009ECADC240EE5A9E064
:1075600093F3A3B50000406E01000000000000008E
:1075700000000000000000000022FEF717BDFEE73B
:1075800080F824107047F8B504460D0018BF002C91
:1075900001D10E20F2BD0120207005F178010020FC
:1075A000E070201D91EC080B80EC080B04F1240620
:1075B0000020307005F12C0704F1C800F96E41601D
:1075C000396F81604FF6FF71018004F125000721BA
:1075D00000F0F0FF3C2104F13000FFF7CDFF2878E8
:1075E000307304F14002A878B073E878F0736878DB
:1075F0007073D5E90401C2E9000104F13802D5E94C
:107600000201C2E9000104F14802D5E90601C2E91C
:10761000000104F15C0079784170696AC9B104F134
:107620006C01316304F178018161696A336B0A8806
:107630001A80326B89889180002106E06A6A92681C
:10764000525C6318491C83F87820326B928891420F
:10765000F4D3A96AE1B104F1A401416404F19802F0
:1076600072639160A96A736B8A889A80726B0988C9
:107670001180002106E0AA6A9268525C6318491CD6
:1076800083F8A420726B92889142F4D33978017008
:10769000286A40B104F1C400F062296A4A88428035
:1076A0000888F16A0880686800B1306105F13C0122
:1076B00004F13000BDE8F440FEF708BAF0B5044626
:1076C00085B020780F4608B90820C6E0E770002092
:1076D00000F074FF10B101206070BDE0072104F1DB
:1076E000250000F067FFA07904F1240504F1CC0621
:1076F00010B1E078012806D0E07970B1E078012877
:1077000018BF022809D13168080004D0012028726E
:107710000820884701E0002028720020211891F8F5
:10772000261079B9401C0628F8D300207F1E032FAD
:1077300017D8DFE807F002090E12A179014203D041
:1077400001200FE00120F1E7E179014218BF02209A
:1077500008D1207A08B1032004E0607A08B104203F
:1077600000E00020E070316808000ED0E0780328C7
:1077700018BF042809D1607938B1307A28B9B072BD
:10778000012070720720884701E00020707268466F
:1077900000210022002300278EC08DF800108DF8F4
:1077A0000810E078042810D8DFE800F0500318270C
:1077B0003C000120A070ADF80C1004F125000190F0
:1077C000ADF80A1001208DF80000E07800283ED0C6
:1077D0002978684673DF002839D03EE00220A07087
:1077E00004F12500019001208DF800002069ADF81A
:1077F0000C00E068ADF80A00E7E76069ADF80A0040
:10780000A069ADF80C00607950B1307A40B9B07A17
:1078100030B100F024F80028D7D10520A070D4E7BB
:107820000320FBE7E069ADF80A00206AADF80C0020
:10783000607948B1307A38B9B07A28B100F00FF8E1
:107840000028C2D10620E9E70420E7E7A1703168EB
:1078500008001CBFA0788847002005B0F0BD0220BA
:107860008DF808000420E87304F13000FEF72EB90B
:1078700010B5024608461388C11C102B00F1C8043D
:1078800004D0112B08D01B2B11D010BDD07B0128A8
:1078900021D19088208010BD0023237392882388F3
:1078A0009A4204BF4978002915D101210AE0127AD1
:1078B0008AB90978491C052291FBF2F202EB820297
:1078C000891AC9B2FFF7FAFE28B1A1680A001CBFE5
:1078D000BDE81040084710BD10B5801E01280C46B9
:1078E00010D8601C017869B10021017081782046B0
:1078F000FFF7E4FE30B1D4F8D0100A001CBFBDE899
:107900001040084710BD38B5044674DF04F1D005B7
:107910000120287100210020A871062084F833007E
:1079200004F13000FEF7D2F848B9E1782046FFF7BD
:10793000C5FE18B129680A0018BF8847002032BD6B
:1079400090490A8982420CBF01F10800002070476B
:10795000F0B58588C68817467C19AA4228BF2F46ED
:10796000ED1B9C460CEB0602B34228BFB446A6EBC7
:107970000C034E880788BE4224BF4088B04209D31A
:107980008888A84228BF844204D3C888984228BF68
:10799000824201D20020F0BD0120F0BD7A49896900
:1079A0000A0018BF0847704738B5044680B2FFF791
:1079B000C7FF020028D0744D107A297B88420DD26F
:1079C00002F10A01A0B275DF20B111281CD0FFF727
:1079D000E5FF31BD107A401C107231BD00201072DD
:1079E000287C38B13B21A0B276DF00281CBF0828D4
:1079F000FFF7D4FF6969080006D000208DF8000069
:107A0000ADF802406846884731BD70B5040001D129
:107A10000E2070BD5C4D284621461C22FCF716FF47
:107A2000584E2E602068A8B17ADFB8B92168304678
:107A30000822FCF7FBFE4FF6FF70308106F11C00B8
:107A4000F0600021514A06F10C00FDF7E7FC28B177
:107A5000032070BD30467BDF0028ECD070BD80B5C0
:107A60000B4649495A7A62B91A7A002A024658687E
:107A70000CBF49688968FDF7E4FC70B1FFF78EFF21
:107A800001BD00221A7249690A0006D00122ADF830
:107A900002008DF800206846884701BD2DE9F843B3
:107AA0000446394F2088102840F2F3194FF6FF782A
:107AB00006D0112825D012284DD050282FD05EE0B6
:107AC000E07BA58801285AD14046FFF739FF060020
:107AD00008BF04203CD0358000203072082206F117
:107AE0000A002849FCF7A2FE43464A4604F1100169
:107AF00006F10A00FFF72CFF7072F88900283ED1CA
:107B00001FE0A088FFF71CFF040038D06068FDF775
:107B1000D7FC08B1FFF742FFA4F800802FE0E0880F
:107B2000F989884204BF208A022828D1A5882846DE
:107B3000FFF706FF060022D004F1120000F033FD2B
:107B400010B13146284617E07068FDF7B9FCB0B1B6
:107B5000BDE8F24322E7A7883846FFF7F1FE0500AB
:107B60000DD043464A4604F1080105F10A00FFF72B
:107B7000EFFE687229463846BDE8F4436FE7BDE87A
:107B8000F1830000804600209C470020A979020074
:107B9000214A107051701046022100F055BD042298
:107BA0001D49002000F067BD80B5FFF7F8FF1A48B7
:107BB0004268BDE8084000211047132800D07047F4
:107BC00080B5164A00210020FDF7CAFC00281CBF22
:107BD000BDE80240FCF760BA01BD10B582B00446B2
:107BE00000F01CFDFEF760F820B9FEF736F808B18A
:107BF000FCF752FA0FF28000094A006800906946CB
:107C000003208DF801001320FEF755F808B1FCF7AA
:107C100043FA0148446013BD5C480020A97B020080
:107C2000BB7B020038B504460D460520FFF7B0FFC8
:107C3000E0060FD5012D03D001211320FEF788F8AF
:107C4000E80744BF012000F0F1F82146BDE83440C8
:107C500006209DE721460620FFF79AFFE80744BF6C
:107C6000002000F0E3F8012D04D0BDE832401320DD
:107C7000FEF7AEB831BD00000100000110B500F004
:107C800035FD044C04212046FCF789FC012060727C
:107C900010BD00BF982B0020514841881C2902DAF2
:107CA000491C418070474078002808BF00F074B834
:107CB000704710B54A4C002060702061BFF35F8FA1
:107CC000201D0FF23811FCF7D4F90020608001214B
:107CD000444A0FF23410FDF7A1FB40B904F114003F
:107CE000BDE8104000224FF40041FDF7AABB10BDD3
:107CF00080B500208DF800006846FBF703FFF1EE29
:107D0000100A20F09F00E1EE100ABFF35F8F3649A2
:107D1000402008609DF80000FBF70FFFFCF75DF9BD
:107D200008B13EDF01BD20BF40BF20BF01BD2C49CF
:107D300000204880704710B5294C02E0201DFCF758
:107D40009CF9E16811BBFCF74EFCFCF73DFB0028F9
:107D5000FBD12078032818BF02280AD0FCF73DF990
:107D600000B132DF214901200860BFF34F8F20BFEF
:107D7000FDE7BFF34F8F1E481E4A016801F4E06122
:107D800011430160BFF34F8F00BFFDE72078096802
:107D900088470028D2D110BD70B5114C04F11005F0
:107DA000012655E8003F324645E8002191F0000FDA
:107DB000F7D1BFF35F8F8BB9042803D0617849B93D
:107DC0002070667000210C4A0020FDF7C9FB08B145
:107DD000FCF762F9BFF35F8F0020206170BD0000E7
:107DE000F0460020997C020084E200E0000500409B
:107DF0000CED00E00400FA05377D020004A2020049
:107E00001CA2020004000000044700208900006852
:107E100001F5A07109B2084470470068D0F8102538
:107E20004FF47A504843D0407047704780B5474977
:107E300009780028084602D000F0DFFC01E000F0DD
:107E4000F5FC00281CBFBDE80240FCF725B901BDC8
:107E500010B50446207868B96068052100F047FE37
:107E600008B1FCF719F96068384A5268BDE810405B
:107E70000121104710BDFEB50FF2EC012CC90446DC
:107E8000684633492CC004208DF8020001208DF88B
:107E90000300002000F0B4FD08B1FCF7FDF86946CE
:107EA000012000F0EAFD08B1FCF7F6F8274D0521A6
:107EB00005F1080000F01BFE08B1FCF7EDF8052104
:107EC00005F1120000F013FE08B1FCF7E5F800F030
:107ED0004EFC08B1FCF7E0F80FF284000FF27806D0
:107EE000D0E90023CDE9012303208DF8060001A984
:107EF000184A304600F05AFE08B1FCF7CDF80521CB
:107F00003046FFF78AFF024600200090012300213F
:107F1000304600F0B0FE304600F091FE00213046C1
:107F2000FFF774FF064600F0D8FD0746284600F02C
:107F300027FC08B1FCF7B0F828783A46314600F043
:107F400040FC08B1FCF7A8F86C60F7BDB84700200A
:107F5000517E02002B7E02000090004001040000D0
:107F600000000007000000000000030002000006FF
:107F7000000000001CB50178664C59B3022921D0DD
:107F800034D240680178201D00F0E9FE616920B11B
:107F900001228DF80020019006E0E0682269101AA5
:107FA00004D000208DF8000068468847E0682189E9
:107FB0002269101A814202D300F081F813BD01201A
:107FC000207013BD8DF800100122C068019000F0F0
:107FD00077F808E000F090F810B900F093F813BDBE
:107FE00003208DF8000068466169884713BDF0B52D
:107FF000484D04460F0089B01E466A6108BF07203D
:1080000049D07A68396892B2281D00F096FE00289F
:1080100041D1FA68B96892B205F1240000F08DFEF2
:10802000002838D10FF2F401684691EC080B80EC7F
:10803000080B60690690207C00B101208DF81400C7
:108040008DF81C60607C00B10E208DF8150069462B
:10805000E068314A0290A06803902068019060684F
:10806000009005F11C00FBF7B3F9A0B92870206857
:1080700010F1010F0ED09DF81D0018B905F11C007C
:10808000FBF792FB012205F1190105F11C00FBF73A
:108090003BFB00E0002009B0F0BD70B51D4C257819
:1080A0000146201D00F068FE064635B10020207014
:1080B00000F005F808B1FBF7EFFF304670BD012274
:1080C00004F1190104F11C00FBF71EBB38B5114C7B
:1080D000014604F1240000F042FE05000AD104F13B
:1080E0001C00FBF740FA28B900F006F810B900F0C0
:1080F00009F80546284632BD04F1180104F12400B0
:1081000000F03ABE012204F1180104F11C00FBF753
:10811000C8B90000682A0020757F0200FFFFFFFF3A
:10812000FFFFFFFFFFFFFFFFFFFFFFFF000000005B
:10813000000000000000D6010701000041EA4201F2
:1081400041EA8302009942EA0122019942EA01418F
:10815000164A42F820107047012202FA00F0144A31
:1081600000290CBF50601060704712490FF298024E
:1081700036E00FF29402105C0021EDE70FF2880266
:10818000105C0121E8E70020F8E70020F1E70FF29A
:108190007801085C07490A68012303FA00F020EA25
:1081A00002034B60104088607047000000070050D9
:1081B000080500500405005000B583B00020019070
:1081C00000900023012201211A20FFF7B7FFBDE82C
:1081D0000740D8E7004901E0100500500FF22C02DB
:1081E0000968105CC14001F00100401E8041C00FD1
:1081F00070474FF0FF31192808BF0021084670472B
:108200000FF20801085C70471A0000001900FEE731
:108210001B4213D1094236D12AB18446B0FBF2F099
:1082200002FB10C2704700F0B3BDFCD30022002354
:1082300070470B000200002100207047904271EB54
:10824000030CF6D370B5B1FA81F4B3FA83F52C1BA5
:10825000A340C4F1200532FA05F63343A2405FF093
:108260000046E64002E05B085FEA3202841A71EBE6
:10827000030524BF204629467641F4D302000B00B3
:108280003000002170BD012ACFD970B5140C20D068
:10829000B1FA81F4B2FA82F5C4F120046419B4F1A0
:1082A0002006D6D3B2405FF00044F440002502E03F
:1082B00052085FEA3303C61A71EB020E24BF304640
:1082C000714664416D41F3D302000B002000290088
:1082D00070BD0C46B1FBF2F102FB11452D0445EADD
:1082E0001045B5FBF2F402FB145580B240EA054597
:1082F000B5FBF2F002FB105240EA044070BDFEE70D
:10830000F8B5002601244D4D07E051407A6881F010
:108310000101130018BF9047761C2978F0B28842FB
:108320001FD268682969F6B200EBC60797F900000A
:1083300004FA00F00842EFD021EA00002861387802
:10834000FDF765FD01463878EA6804FA00F31A4043
:1083500001FA00F39A42DFD17A78012A18BF00228D
:10836000D3E7F1BDF8B50546012000FA05F6334C18
:1083700004F11400FDF7A4F8D8B92069F74330429E
:1083800015D12846FDF743FDE168002814BF46EAF1
:10839000010007EA0100E06000222069A168304383
:1083A000206104F11400BDE8F840FDF74AB83840F8
:1083B0002061F1BDF8B51646052E04460D4601D2E2
:1083C0000720F2BDFDF770FC10B9FDF746FC18BBA5
:1083D0001A480FF278078660002144600570C1607A
:1083E0000161174E2846451E80B138680090EDB2F5
:1083F00004EBC500324680788DF80100694614F818
:108400003500FDF758FC0028ECD0F2BD0D4A0FF204
:1084100038000021FDF702F8F2BD38B50024074D01
:1084200006E0686810F834000121FDF791FC641C37
:1084300028788442F5D3002032BD0000BC460020DD
:108440006583020001830200D04600200300000083
:1084500080B500F004F808B90FF23C0002BD10B579
:108460000FF2480101F1F00200E01A46914210D2E9
:10847000531ADB1003EBD3735B1001EBC3031C68CF
:10848000A042F2D3844238BF03F10801EED358680A
:1084900010BD002010BD0000556E6B6E6F776E2012
:1084A0006572726F7220636F6465000000000000E7
:1084B000A096020001000000AC960200020000003D
:1084C000CC96020003000000F096020004000000B9
:1084D0000497020005000000189702000600000043
:1084E0002C970200070000004497020008000000DB
:1084F0005C97020009000000749702000A00000067
:10850000909702000B000000A89702000C000000EA
:10851000C09702000D000000D49702000E0000007A
:10852000E89702000F000000F8970200100000001A
:108530000C98020011000000249802008000000046
:10854000349802008100000054980200820000006C
:1085500070980200830000008C98020084000000E4
:10856000AC98020085000000D09802008600000050
:10857000F89802009000000010990200910000009D
:108580003099020000820000509902000182000030
:1085900070990200028200008C99020001784078F4
:1085A00041EA0020704780B5FFF7F8FFFFE700F0D1
:1085B000010002BD002200F0EDBBFEE710B500286F
:1085C0001CBF0168002919D1002400E0641C0D487B
:1085D0000D49401A1421B0FBF1F084420CD26143E2
:1085E0000A480A4A084451580029EFD0C969884707
:1085F0000028EBD0012010BD002010BDC969BDE8E6
:1086000010400847000000000000000000000000CB
:10861000007810B92D490120087070471FB50FF27E
:10862000BC000FC86C4684E80F000FF2A804284A6B
:10863000002369462046FCF7DBF908B1FBF72CFD67
:108640002046FCF721FA1FBD38B5204C00222270CD
:1086500000920B46024644210FF27800FCF7CEFB55
:10866000050003D0FBF718FD00E020BF20780028AC
:10867000FBD0284632BDF8B5144C0FF25807607095
:108680000D46002020701646012000900123621C38
:1086900044213846FCF7B2FB18B1FBF7FDFC00E0C3
:1086A00020BF20780028FBD00020207033462A46C7
:1086B00044213846FCF7B0FB050018BFFBF7ECFC83
:1086C00020780028FCD020BF2846F2BD8B4800202F
:1086D000118602000030004000000000150000007C
:1086E00010000000000098010200000000F032BC01
:1086F000F8B515000C460DD000260A272A46A11908
:10870000002000F0FDFB86192D1A08B97F1E01D04C
:10871000002DF3D1F1BD80B5034A00924023034AF6
:1087200000F026FC01BD0000F1860200404600205A
:1087300070477047012101FA00F0C0F310000028D3
:1087400018BF0120C0B27047012101FA00F0400CAF
:108750004004401E8041C00F7047474949680122CC
:1087600002FA00F0084018BF0120C0B2704742482A
:108770000178002903BF0121017000208520704786
:108780002DE9F04182B0804604273D4D002600F0DF
:1087900067F8012000FA06F425420AD0F0B2FFF78C
:1087A000DCFF30B9344841682143416088F80060FB
:1087B000002700F05DF81FB1A54306F10106E6D1E0
:1087C0004BE0F8B50D00164618BF002E044601D147
:1087D0000E20F2BDFFF7AEFF002708B907270AE019
:1087E00000F022F808B9082705E0264840F8345080
:1087F00000EBC40046603846F2BD38B50446FFF7CA
:10880000A3FF002508B907250CE02046FFF792FFDB
:1088100020B100F009F808B9082503E001201A4941
:10882000A0400860284632BD204696E738B5044689
:10883000FFF78AFF002508B907250CE02046FFF75F
:1088400079FF20B1FFF7F0FF08B9082503E0012008
:108850000A49A0400860284632BD3846BDE8F68186
:1088600000208DF800006846FBF74CB940F8251051
:108870009DF80000FBF761B96C48002008F5014045
:10888000FFFF010010F5014004F50140DFF8EC1294
:10889000085800B10120C0B27047DFF8E01281B083
:1088A00000220A5008580090009801B0704710B597
:1088B0000001DFF8CC321C186260195010BD70B591
:1088C00084B04FF48270DFF8BC42DFF8B062FFF78B
:1088D000DDFF04F12D0510B300F0CCF8A97868781D
:1088E00081F0010108421AD100218DF80010616861
:1088F00001912189ADF80810E16811B900202074B8
:1089000008E0228B6283616022810021E16008B966
:10891000012030606846216888470020A870687888
:1089200040B34FF48070FFF7B1FF18B300F0DCF8EC
:108930002978638BDFF85002994208D25A1A628371
:1089400092B2238965689A1A05EB420207E08B42CE
:108950000CD1E26832B10123AB7000236383026063
:10896000416003E00120A8700020608300F082F8DD
:10897000012070604FF48870FFF788FF58B14FF402
:108980008870FFF78AFF0020207402208DF8000015
:108990006846216888474FF48A70FFF777FF30B147
:1089A0004FF48A70FFF779FF002020747FBD65695E
:1089B00023E0B5FA85F04FF00041C140800000F59A
:1089C0008C768D4330B2FFF761FFB0B130B2FFF764
:1089D00064FF01208DF8000036B2A6F58C70C00847
:1089E0008DF804003606B00E00F0010080F00100A2
:1089F0008DF80500684621688847002DD9D17FBDD4
:108A000070B50546DFF87C0100F12C0422780AB12C
:108A1000082070BD0A0001D1072070BD0DB90FF20A
:108A2000781501602A78DFF86411DFF864610A6064
:108A30006A784A60E978A1700121217000210174EF
:108A400041616170E1706FF00040706000F012F8F9
:108A500000F04AF8A9780720FBF72BF802203060D5
:108A6000A07808B1012030600120DFF828110860EB
:108A7000002070BD4FF482700FE770B504460D46BC
:108A800000F026F80AB1112070BD2A79414E13007A
:108A900000EB440012BF012A00223260027F12B9AB
:108AA0004A7F521C4A77E9790177297A4177204633
:108AB000294600F0D7FA2A7AE9792046FFF7F7FE2F
:108AC0002879010012BF012801203060002070BD0C
:108AD0002C4800F110010A7870472A49274891F87C
